:020000040800F2
:10000000E01E00201D02000801140008650E000813
:10001000FD1300082D0D00089324000800000000C7
:100020000000000000000000000000006D1F00083C
:10003000310D000800000000E918000859200008F0
:1000400037020008370200083702000837020008AC
:10005000370200083702000837020008370200089C
:10006000370200083702000837020008370200088C
:10007000370200083702000837020008370200087C
:10008000370200083702000837020008370200086C
:10009000370200083702000837020008370200085C
:1000A000370200083702000837020008370200084C
:1000B00037020008BD20000811210008370200089F
:1000C000370200083702000837020008370200082C
:1000D0003702000837020008370200089D22000896
:1000E000370200083702000837020008370200080C
:1000F00037020008370200083702000837020008FC
:1001000037020008370200083702000837020008EB
:1001100037020008370200083702000837020008DB
:1001200037020008370200083702000837020008CB
:1001300000F002F800F062F80AA090E8000C824497
:100140008344AAF10107DA4501D100F057F8AFF274
:10015000090EBAE80F0013F0010F18BFFB1A43F0A5
:1001600001031847685E0000885E00000A444FF0F3
:10017000000C10F8013B13F0070408BF10F8014B06
:100180001D1108BF10F8015B641E05D010F8016B4B
:10019000641E01F8016BF9D113F0080F1EBF10F8AF
:1001A000014BAD1C0C1B09D16D1E58BF01F801CBD2
:1001B000FAD505E014F8016B01F8016B6D1EF9D555
:1001C0009142D6D37047000000230024002500266A
:1001D000103A28BF78C1FBD8520728BF30C148BFAA
:1001E0000B607047752900F07580782900F0AE80AB
:1001F000002070471FB51FBD10B510BD00F019FAE3
:100200001146FFF7F7FF03F023FA00F037FA03B4C3
:10021000FFF7F2FF03BC00F03FFA000009488047F7
:1002200009480047FEE7FEE7FEE7FEE7FEE7FEE7D8
:10023000FEE7FEE7FEE7FEE704480549054A064BF0
:10024000704700005D20000831010008E018002020
:10025000E01E0020E01A0020E01A00200FB41CB5B8
:10026000074B06AA7B4469460090059800F0C9F93F
:100270000020694600F0D8F91CBC5DF814FB0000B2
:10028000C103000070B5044685690068C10601D548
:10029000302600E02026C00707D070BDD4E9012138
:1002A00030469047206A401C20626D1EF6D570BD16
:1002B00070B5044685690078C00707D170BDD4E9E0
:1002C000012120209047206A401C20626D1EF6D537
:1002D00070BD00002DE9F041064600241068752924
:1002E000314616A510D0AFF30080002802DA404254
:1002F00013A507E031688A0701D512A502E0490776
:1003000004D511A5012401E0AFF3008000210A22E9
:1003100006F1240709E0B0FBF2FCB0FBF2F302FBAC
:100320001C00303078541846491C0028F3D123466D
:100330002A463046BDE8F04100F005B90000000053
:100340002D0000002B0000002000000070B50446C6
:100350000D4621461068AFF300802188090502D5BB
:100360000F4A7A4402E00E4A7A440E32002104F128
:10037000240305E000F00F060009965D5E54491C59
:100380000028F7D120780023000704D5702D02D073
:1003900009B1022311322046BDE8704000F0D3B805
:1003A0002A5C00002DE9F05F894604464FF0000A00
:1003B000DFF824B1FB44C0F820A02046E16888475C
:1003C00000287DD0252806D0D4E901219047206A55
:1003D000401C2062F1E700255F462046E16888471F
:1003E0002028064607DB312E05D2B81910F8200C5C
:1003F00008B10543F1E7A80701D525F00405C4F8C5
:100400001CA00027C4F818A02A2E09D0304602F0FC
:10041000F9F938B304EB8708303EC8F8186019E0E2
:1004200059F8041B204604EB87029161E168884774
:10043000012F064618D1E069002820DA25F02005B2
:100440001DE0D8F8180000EB800006EB40003038C3
:10045000C8F818002046E1688847064602F0D2F93D
:100460000028EED1012F0AD02E2E08D12046E168B7
:1004700088477F1C0646022F45F02005C4DBA06993
:10048000002803DA404245F00105A061E80701D0E9
:1004900025F01005A6B1A6F14100192802D8203692
:1004A00045F400654A463146204625604D46FFF733
:1004B00099FE60B1012807D0ED1D25F0070000E08E
:1004C00007E000F1080978E705F1040975E730460F
:1004D0007AE7206ABDE8F09F005C000010B5203A82
:1004E000C0F00B80B1E81850203AA0E81850B1E8ED
:1004F0001850A0E81850BFF4F5AF5FEA027C24BFA3
:10050000B1E81850A0E8185044BF18C918C0BDE899
:1005100010405FEA827C24BF51F8043B40F8043B62
:1005200008BF7047D20728BF31F8023B48BF11F817
:10053000012B28BF20F8023B48BF00F8012B704771
:100540007047704770472DE9F0470D46994692462F
:10055000044600F124080168880604D5E06921F00A
:100560001001216000E00120A84201DD471B00E0EE
:100570000027A1697A1902EB0900081AA061207806
:10058000C00602D42046FFF77DFE002608E0D4E92D
:1005900001211AF806009047206A401C761C206250
:1005A0004E45F4DB2078C0060AD52046FFF76AFEE8
:1005B00006E0D4E9012130209047206A401C2062E7
:1005C000381EA7F10107F4DC07E0D4E9012118F88F
:1005D00005009047206A401C2062281EA5F10105F5
:1005E000F3DC2046FFF764FE2078000602D50220E7
:1005F000BDE8F0870120FBE701694A1C0261087829
:10060000704700B58FB0CDE9013100210591054952
:100610007944CDE9031011466846FFF7C3FE0FB0D9
:1006200000BD0000E5FFFFFF0A6802F8010B0A6049
:100630007047754600F02CF8AE46050069465346F3
:1006400020F00700854618B020B5FFF7F5FDBDE89E
:1006500020404FF000064FF000074FF000084FF029
:10066000000B21F00701AC46ACE8C009ACE8C009BA
:10067000ACE8C009ACE8C0098D46704710B5044627
:10068000AFF300802046BDE81040FFF7C0BD00007A
:10069000004870478018002001491820ABBEFEE7D3
:1006A00026000200704700002DE9FF4104460D4678
:1006B0004FF0010800F0E8F921A30FCB8DE80F00FF
:1006C00020128DF80A00E0B28DF80B0028128DF888
:1006D0000C00E8B28DF80D0004F114002844000A63
:1006E0008DF80E0004F114002844C0B28DF80F00FC
:1006F0001021684600F066FA00BF154800780C2803
:10070000FBDB144880791349C97900EB01201149BA
:10071000097A08440F49497A084486B20D48C07ADC
:100720000C49897A00EB012087B2BE4204D1094806
:10073000407A08B94FF00008404604B0BDE8F081A7
:10074000EF01FFFFFFFF0100070C000000000000A9
:10075000F00600207E1700202DE9FF410446012706
:10076000012C01D0022C2FD100F08EF918A30FCB51
:100770008DE80F008DF80A40E01DC0B28DF80C0026
:100780000D21684600F01EFA00BF154800780C28BD
:10079000FBDB144880791349C97900EB012011492A
:1007A000097A08440F49497A084485B20D48C07A4D
:1007B0000C49897A00EB012086B2B54203D1094881
:1007C000407A00B9002700BF384604B0BDE8F08188
:1007D000EF01FFFFFFFF0100040200000000000026
:1007E000F00600207E170020FEB5012600F04CF92F
:1007F00014A207CA8DE807000C21684600F0E2F950
:1008000000BF134800780C28FBDB1248807911499F
:10081000C97900EB01200F49097A08440D49497A4A
:10082000084484B20B48C07A0A49897A00EB012057
:1008300085B2AC4203D10748407A00B90026304661
:10084000FEBD0000EF01FFFFFFFF010003010005F7
:10085000F00600207E170020FEB5012600F014F9F6
:1008600014A207CA8DE807000C21684600F0AAF917
:1008700000BF134800780C28FBDB1248807911492F
:10088000C97900EB01200F49097A08440D49497ADA
:10089000084484B20B48C07A0A49897A00EB0120E7
:1008A00085B2AC4203D10748407A00B900263046F1
:1008B000FEBD0000EF01FFFFFFFF0100030500097F
:1008C000F00600207E1700202DE9F04F85B0044689
:1008D0000D4616461F46DDF838A04FF0010B012CDF
:1008E00001D0022C66D100F0CFF8142233A1684663
:1008F000FFF7F4FD8DF80A4028128DF80B00E8B2DE
:100900008DF80C0030128DF80D00F0B28DF80E004D
:1009100004F10D0028443044000A8DF80F0004F162
:100920000D0028443044C0B28DF8100011216846F3
:1009300000F048F900BF264800781028FBDB254866
:1009400080792449C97900EB01202249097A0844B9
:100950002049497A08441F49897A00EB01201D4942
:10096000C97A08441B49097B00EB01201949497BDE
:1009700008441FFA80F81748C07B1649897B00EBB2
:1009800001201FFA80F9C84513D11248407A80B976
:100990004FF0000B0F48C07A0E49897A00EB012016
:1009A00038800C48407B0B49097B00EB0120AAF8FA
:1009B000000000BF584605B0BDE8F08FEF01FFFF13
:1009C000FFFF01000804000000000000000000001C
:1009D000F00600207E1700202DE9FF4104460D4659
:1009E0004FF001080CB1012C3ED100F04DF820A3CE
:1009F0000FCB8DE80F008DF80A4028128DF80B0000
:100A0000E8B28DF80C0004F10D002844000A8DF8BE
:100A10000D0004F10D002844C0B28DF80E000F2126
:100A2000684600F0CFF800BF154800780C28FBDBC3
:100A3000144880791349C97900EB01201149097ADA
:100A400008441049497A084486B20E48C07A0D49D4
:100A5000897A00EB012087B2BE4204D10948407A6E
:100A600008B94FF0000800BF404604B0BDE8F0816F
:100A7000EF01FFFFFFFF010006060000000000007D
:100A8000F00600207E170020002004E00021064A26
:100A90001154411CC8B2054909788842F6DB00218F
:100AA000024A1170704700007E170020F0060020F7
:100AB00000B587B001F0CCFE0121802001F0A4F93F
:100AC0004FF40060ADF8180004208DF81B000320DF
:100AD0008DF81A0006A92C4800F02BF901210820F6
:100AE00001F092F90121880401F07EF94FF4806051
:100AF000ADF8180018208DF81B0003208DF81A009F
:100B000006A9224800F015F94FF40060ADF818006E
:100B100004208DF81B0003208DF81A0006A91B483D
:100B200000F007F94FF4E13002900020ADF8140016
:100B30000C20ADF812000020ADF81000ADF80E004A
:100B4000ADF80C0002A9124801F02EFC27208DF808
:100B5000040003208DF805008DF8060001208DF8B3
:100B6000070001A800F04EFC012240F22551084880
:100B700001F0F5FB0121064801F0AEFB40210448DD
:100B800001F0B6FB07B000BD001C0140000C0140A5
:100B90000048004010B500244FF40061084800F000
:100BA00053F901280AD1052001F072FE4FF40061CB
:100BB000034800F049F9012800D10124204610BD66
:100BC000001C014070B504460D4600260DE021785A
:100BD000074801F05AFC00BF4021054801F088FB9E
:100BE0000128F9D1641C701CC6B2AE42EFDB70BDA7
:100BF0000048004000B585B00121802001F004F9D3
:100C00008020ADF8100010208DF8130003208DF81F
:100C1000120004A91A4800F08CF80121022001F00A
:100C2000E3F84820ADF804000020ADF80A00ADF864
:100C300006004FF48E60ADF8080001A9114801F0DC
:100C4000DBFA012211460F4801F0CBFA1D208DF886
:100C5000000000208DF8010003208DF80200012023
:100C60008DF80300684600F0CDFB012006490870AE
:100C700001228021024800F0F0F805B000BD00001C
:100C8000001C014000040040EF06002010B504469F
:100C900064B900210E4801F084FA01200D49087062
:100CA000012280210C4800F0D8F80FE0002108480C
:100CB00001F0A0FA012007490870012280210648AE
:100CC00000F0CBF80121024801F06BFA10BD0000E2
:100CD00000040040EF060020001C01402DE9FE4307
:100CE0000446204605F0EDF807463A460B4600203C
:100CF0000C4904F061FF054605F0B6F8814648202E
:100D0000ADF800000020ADF80600ADF802001FFAB3
:100D100089F0ADF804006946034801F06DFABDE8BA
:100D2000FE83000080841E410004004000BFFEE7F7
:100D300070472DE9F04102460025002600200023DF
:100D40000024002791F803C00CF00F0591F803C0B0
:100D50000CF0100CBCF1000F03D091F802C04CEA6B
:100D6000050591F800C0BCF1000F31D014680020D7
:100D70002BE04FF0010C0CFA00F3B1F800C00CEAC4
:100D800003069E4220D183004FF00F0C0CFA03F7AC
:100D9000BC4305FA03FC4CEA040491F803C0BCF11F
:100DA000280F06D14FF0010C0CFA00FCC2F814C059
:100DB0000AE091F803C0BCF1480F05D14FF0010CD7
:100DC0000CFA00FCC2F810C0401C0828D1D31460F3
:100DD000B1F800C0BCF1FF0F34DD546800202EE0F4
:100DE00000F1080C4FF0010808FA0CF3B1F800C04C
:100DF0000CEA03069E4221D183004FF00F0C0CFA3F
:100E000003F7BC4305FA03FC4CEA040491F803C061
:100E1000BCF1280F05D100F1080C08FA0CF8C2F853
:100E2000148091F803C0BCF1480F07D100F1080C01
:100E30004FF0010808FA0CF8C2F81080401C08288E
:100E4000CED35460BDE8F0810246002093680B4089
:100E50000BB1012000E0002070470AB1016100E001
:100E60004161704700BFFEE708B501F0F1FC0121C8
:100E7000080200F0C9FF0121102000F0C5FF012188
:100E8000042000F0C1FF10208DF803000720ADF80A
:100E9000000003208DF8020069460F48FFF749FF64
:100EA00010208DF80300C001ADF8000003208DF87C
:100EB000020069460948FFF73CFF04208DF8030053
:100EC0004FF4E070ADF8000003208DF80200694691
:100ED0000348FFF72EFF08BD001001400008014045
:100EE0000020014070B504460025012C05D14021A9
:100EF0000B48FFF7A9FF05460FE0022C05D1802122
:100F00000748FFF7A1FF054607E0032C05D14FF482
:100F100080710348FFF798FF0546284670BD000022
:100F20000020014010B5FF2401231A461946002075
:100F300000F008F90120FFF7D5FF80B9052001F086
:100F4000A7FC0120FFF7CEFF002830D1002400BF0E
:100F50000120FFF7C7FF0128FAD1204610BD02206B
:100F6000FFF7C0FF78B9052001F092FC0220FFF7DF
:100F7000B9FFE0B9012400BF0220FFF7B3FF012849
:100F8000FAD12046EAE70320FFF7ACFF78B9052045
:100F900001F07EFC0320FFF7A5FF40B9022400BF4B
:100FA0000320FFF79FFF0128FAD12046D6E701234F
:100FB0001A460021184600F0C5F80120FFF792FFFD
:100FC00078B9052001F064FC0120FFF78BFF80BB9E
:100FD000032400BF0120FFF785FF0128FAD1204636
:100FE000BCE70220FFF77EFF78B9052001F050FC36
:100FF0000220FFF777FFE0B9042400BF0220FFF7CB
:1010000071FF0128FAD12046A8E70320FFF76AFF05
:1010100078B9052001F03CFC0320FFF763FF40B9DD
:10102000052400BF0320FFF75DFF0128FAD1204609
:1010300094E7FFE7012300221946184600F082F8E2
:101040000120FFF74FFF78B9052001F021FC0120B6
:10105000FFF748FF80BB062400BF0120FFF742FFD7
:101060000128FAD1204679E70220FFF73BFF78B943
:10107000052001F00DFC0220FFF734FFE0B9072442
:1010800000BF0220FFF72EFF0128FAD1204665E7B6
:101090000320FFF727FF78B9052001F0F9FB0320B3
:1010A000FFF720FF40B9082400BF0320FFF71AFF15
:1010B0000128FAD1204651E7FFE70023012211461B
:1010C000104600F03FF80120FFF70CFF78B905202B
:1010D00001F0DEFB0120FFF705FF80BB092400BF04
:1010E0000120FFF7FFFE0128FAD1204636E7022053
:1010F000FFF7F8FE78B9052001F0CAFB0220FFF7E0
:10110000F1FEE0B90A2400BF0220FFF7EBFE012840
:10111000FAD1204622E70320FFF7E4FE78B9052044
:1011200001F0B6FB0320FFF7DDFE40B90B2400BF42
:101130000320FFF7D7FE0128FAD120460EE7FFE78C
:1011400020460BE72DE9F05F04460D4616461F4684
:10115000012083468246814680460CB94FF0000844
:101160000DB94FF000090EB94FF0000A0FB94FF05A
:10117000000B424601210A48FFF76FFE4A464FF432
:1011800000610848FFF769FE524604210448FFF752
:1011900064FE5A4602210248FFF75FFEBDE8F09F59
:1011A000001001400008014000B585B001218020F9
:1011B00000F02AFE4FF4E060ADF8100010208DF82A
:1011C000130003208DF8120004A91848FFF7B1FDA1
:1011D0000121042000F008FE4FF4E150ADF80400B6
:1011E0000020ADF80A00ADF806000A20ADF80800AE
:1011F00001A90F4801F000F8012211460C4800F047
:10120000F0FF1E208DF8000000208DF80100032063
:101210008DF8020001208DF80300684600F0F2F816
:10122000072000F063F805B000BD0000001C01407D
:10123000000800402DE9F04704460D4616460120FF
:1012400081468046074604B900270DB94FF00008D3
:101250000EB94FF000093A464FF400710848FFF705
:10126000FCFD42464FF480710548FFF7F6FD4A4603
:101270004FF480610248FFF7F0FDBDE8F087000001
:10128000001C014070B506460C461546BEB1B4B10F
:10129000ADB1104804801048058000200F49088037
:1012A0000F4908700F48007800F020F800210E4820
:1012B00000F0A0FF01210C4800F073FF08E03EB9E8
:1012C0000021094800F06DFF0648007800F00EF894
:1012D00070BD0000EA060020EC060020E8060020B1
:1012E000EE060020E60600200008004010B5044687
:1012F00020480470022C05D1012200210846FFF786
:1013000099FF35E02CB9002211460120FFF792FF2A
:101310002EE0012C05D1002201211046FFF78AFFA3
:1013200026E0032C05D1012200211046FFF782FFA1
:101330001EE0052C05D1002201210846FFF77AFFA7
:1013400016E0042C05D1012211460020FFF772FFA0
:101350000EE0062C05D1012211461046FFF76AFF68
:1013600006E0072C04D1002211461046FFF762FF69
:1013700010BD0000E606002010B540210348FFF72D
:1013800063FD08B9012010BD0020FCE700140140F6
:1013900008B50121202000F037FD8020ADF80000C5
:1013A00010208DF8030003208DF8020069460A48DA
:1013B000FFF7BFFC4020ADF8000004208DF80300CB
:1013C00003208DF8020069460348FFF7B2FC0120B4
:1013D00000F004F808BD00000014014070B5044698
:1013E000002504B901252A4680210348FFF735FD71
:1013F000642001F04DFA70BD0014014000BFFEE70B
:101400007047000070B5002100230F22C47804B398
:10141000154C246804F4E064C4F5E064210AC1F1C9
:101420000403CA40447804FA03F184781440214349
:1014300009010E4C0678A155047804F01F0501241B
:10144000AC4005786D11AD0005F1E025C5F800410F
:1014500009E0047804F01F050124AC40044D06782F
:10146000761145F8264070BD0CED00E000E400E088
:1014700080E100E070B50546002405E0601CC4B2C0
:10148000C82C01DD002070BD02210E4800F042FD95
:101490000028F3D029460B4800F048FD002405E061
:1014A000601CC4B2C82C01DD0020ECE70121054816
:1014B00000F030FD0028F3D0024800F034FDC0B247
:1014C000E1E700000030014070B5002419E004F1AC
:1014D000B001C8B2012100F03EF90121002000F066
:1014E0003AF90121102000F036F9002505E000212D
:1014F000084600F030F9681CC5B2802DF7DB601C8F
:10150000C4B2082CE3DB70BD00B587B0012108032D
:1015100000F07AFC0121042000F076FC0121082073
:1015200000F072FCA020ADF8180018208DF81B0008
:1015300003208DF81A0006A92648FFF7FAFB402081
:10154000ADF8180004208DF81B0003208DF81A0058
:1015500006A92048FFF7EDFB1020ADF818008DF824
:101560001B0003208DF81A0006A91A48FFF7E1FBBB
:101570004FF44070ADF8180010208DF81B000320C8
:101580008DF81A0006A91448FFF7D3FB1820ADF810
:1015900010000020ADF80C00ADF80A000720ADF8EF
:1015A00014000020ADF80800ADF80400ADF81200FA
:1015B0004FF48270ADF806004FF40070ADF80E00E5
:1015C00001A9064800F0B4FC0121044800F096FC93
:1015D00007B000BD00080140000C01400030014090
:1015E00010B501F035F9FFF78FFF00F023F810BDBB
:1015F00070B504460D46012605B90026012C05D11B
:10160000324661020948FFF728FC0DE0022C05D1A3
:101610003246E1010548FFF720FC05E024B93246D7
:1016200010210348FFF719FC70BD0000000C0140B9
:101630000008014010B501210846FFF7D9FF01213C
:101640000020FFF7D5FF01210220FFF7D1FF142072
:1016500001F041F900210220FFF7CAFF142001F038
:101660003AF901210220FFF7C3FF142001F033F9FA
:101670000121AE2000F06FF80121202000F06BF86E
:101680000121102000F067F80121B02000F063F87C
:101690000121002000F05FF80121102000F05BF82C
:1016A0000121C82000F057F80121A12000F053F8D3
:1016B0000121402000F04FF80121D32000F04BF829
:1016C0000121002000F047F80121A62000F043F896
:1016D0000121A82000F03FF801213F2000F03BF855
:1016E0000121A42000F037F80121D52000F033F8C3
:1016F0000121F02000F02FF80121812000F02BF8CB
:101700000121FF2000F027F80121D92000F023F863
:101710000121222000F01FF80121DA2000F01BF83F
:101720000121122000F017F80121DB2000F013F84E
:101730000121202000F00FF801218D2000F00BF88E
:101740000121142000F007F80121AF2000F003F878
:10175000FFF7BAFE10BD70B505460C46012C04D14A
:1017600000210120FFF744FF04E01CB901210846D5
:10177000FFF73EFF00210846FFF73AFF2846FFF734
:1017800079FE01210020FFF733FF70BD2DE9FF4FE7
:1017900081B007468946032F02DD05B0BDE8F08F12
:1017A000002528E0B02101EB47012944C8B20121FE
:1017B000FFF7D1FF01210020FFF7CDFF012110200D
:1017C000FFF7C9FF039850B9002405E0002108463F
:1017D000FFF7C1FF601C04B2802CF7DB09E0002496
:1017E00005E00021FF20FFF7B6FF601C04B2802C4B
:1017F000F7DB681C05B2022DD4DB049E4FF0000815
:1018000004E0761C08F1010000F0FF0830780028A1
:10181000F7D1B9F1000F01D182460CE0B9F1010F07
:1018200003D14020A0EB880A05E0B9F1020F02D1F4
:101830008020A0EBC80A002550E0049E54460020FA
:101840000090B02101EB47012944C8B20121FFF704
:1018500082FF3EE04FF0000B36E0002C2EDB7F2CA9
:101860002CDC009868B904F00F000121FFF773FF2A
:10187000C4F3031101F110000121FFF76CFF0120F7
:101880000090039860B931782039164A02EB0111B3
:10189000082202FB05B2885C0021FFF75CFF0DE027
:1018A000317820390F4A02EB0111082202FB05B200
:1018B000895CC943C8B20021FFF74DFF601C04B228
:1018C0000BF1010000F0FF0BBBF1080FC5DB761C2C
:1018D00000BF30780028BDD1681C05B2022DACDBFA
:1018E00000BF5AE7F5000020704710B50446412CB0
:1018F00024D10821084600F04DF83D21112000F0C8
:101900005EFA8621172000F05AFA7F21262000F087
:1019100056FA1E212D2000F052FA00212C2000F052
:101920004EFA8D212A2000F04AFA3E212B2000F0A9
:1019300046FA0A2000F0CFFF00F0B2F810BD000018
:1019400070B50546002405E0601CC4B2C82C01DD5A
:10195000002070BD02210E4800F0DCFA0028F3D010
:1019600029460B4800F0E2FA002405E0601CC4B2EE
:10197000C82C01DD0020ECE70121054800F0CAFA7F
:101980000028F3D0024800F0CEFAC0B2E1E7000030
:101990000030014070B505460C46284600F0EAF9D3
:1019A000064626EA0401284600F009FA70BD000048
:1019B00000B587B00121080300F026FA01210420B8
:1019C00000F022FA0121082000F01EFAA020ADF854
:1019D000180018208DF81B0003208DF81A0006A9A6
:1019E0002848FFF7A6F94020ADF8180018208DF818
:1019F0001B0003208DF81A0006A92248FFF799F969
:101A00000220ADF8180010208DF81B0003208DF87F
:101A10001A0006A91C48FFF78CF91820ADF8100031
:101A20000020ADF80C00ADF80A000720ADF8140056
:101A30000020ADF80800ADF80400ADF812004FF436
:101A40008270ADF806004FF40070ADF80E0001A9E9
:101A50000E4800F06DFA01210C4800F04FFA4FF4E7
:101A60008070ADF8180010208DF81B0003208DF851
:101A70001A0006A90348FFF75CF9142000F02BFFB9
:101A800007B000BD00080140000C014000300140DB
:101A900010B500F0DDFEFFF78BFF00F00BF910BD75
:101AA00010B5142000F066F9044604F0030018B9DC
:101AB0000321142000F076F910BDF0B587B005467B
:101AC000002708210846FFF765FF00210D2000F0E0
:101AD00076F980210E20FFF75DFF93208DF8080036
:101AE00020208DF8090001A802AB022202A9009073
:101AF0000C2000F01BF80646262E10D1002407E02B
:101B000002A8005D285502A8005D4740601CC4B2D1
:101B1000042CF5DB02A8005DB84200D0BB26802172
:101B20000E2000F03FF9304607B0F0BD2DE9FE4F22
:101B30000646884691469A46DDF830B0BB200290B2
:101B40000020019000900C2E06D00E2E09D11220FC
:101B500001901020009005E0772001903020009047
:101B600000E000BF00BF019840F08001022000F0BB
:101B700026F980210420FFF70DFF0021012000F04D
:101B80001EF980210A2000F00DF9002505E018F863
:101B90000510092000F013F96D1C4D45F7D33146AF
:101BA000012000F00CF90C2E03D180210D2000F053
:101BB000F9F84FF47A7500BF042000F0DBF8044612
:101BC0006D1E35B104F0010018B9009820400028BE
:101BD000F2D080210D20FFF7DDFE95B3062000F046
:101BE000C9F800F01B0068BB262002900198204035
:101BF00000F0010008B1CC2002900C2E24D10A2064
:101C000000F0B8F804460C2000F0B4F800F0070724
:101C10002FB1601E07EBC000CBF8000002E0E0002F
:101C2000CBF8000004B90124122C00DD1224002599
:101C300005E0092000F09EF80AF805006D1CA54299
:101C4000F7D301E0BB20029080210C2000F0AAF81D
:101C50000021012000F0B3F80298BDE8FE8F70B5B6
:101C600088B005460C4608210846FFF793FE072179
:101C70000D2000F0A4F80321142000F093F88DF853
:101C80000C5002A803AB012203A900900C20FFF71F
:101C90004DFF0646262E09D10298102806D19DF840
:101CA0000C0020709DF80D00607000E0BB263046EF
:101CB00008B070BD10B50121084600F041F80121BF
:101CC000002000F03DF80A2000F005FE0021012070
:101CD00000F036F80A2000F0FEFD0121084600F071
:101CE0002FF80A2000F0F7FD0F21012000F067F81F
:101CF00000BF012000F03EF800F010000028F8D1ED
:101D00000A2000F0E8FD3D21112000F058F81E21C6
:101D10002D2000F054F800212C2000F050F88D21E7
:101D20002A2000F04CF83E212B2000F048F84021FA
:101D3000152000F044F84120FFF7D7FD10BD00004A
:101D400070B504460D46012605B900262CB9324669
:101D500002210648FFF781F806E0012C04D1324643
:101D600021020348FFF779F870BD0000000C014024
:101D70000008014070B504467E2000EA440040F0AF
:101D8000800500210846FFF7DBFF2846FFF7D8FD56
:101D90000020FFF7D5FD064601210020FFF7D0FF08
:101DA000304670BD70B505460C462846FFF7E2FF89
:101DB000064646EA0401284600F001F870BD70B5F9
:101DC00004460D467E2000EA440600210846FFF73F
:101DD000B7FF3046FFF7B4FD2846FFF7B1FD0121FC
:101DE0000020FFF7ADFF70BD29B1064AD26902435A
:101DF000044BDA6104E0034AD2698243014BDA61A1
:101E0000704700000010024029B1064A926902435F
:101E1000044B9A6104E0034A92698243014B9A6140
:101E2000704700000010024030B50021002200245D
:101E300000232D4D6D6805F00C0121B1042905D05A
:101E4000082923D105E0294D056022E0274D0560D2
:101E50001FE0254D6D6805F47012234D6D6805F483
:101E60008034022505EB92421CB9214D5543056093
:101E70000BE01D4D6D6805F400351DB11C4D55433B
:101E8000056002E0194D5543056002E0174D0560FD
:101E900000BF00BF144D6D6805F0F0010909154D34
:101EA0006B5C0568DD4045600F4D6D6805F4E061D1
:101EB000090A104D6B5C4568DD4085600A4D6D6810
:101EC00005F46051C90A0B4D6B5C4568DD40C56087
:101ED000054D6D6805F44041890B074D6B5CC56885
:101EE000B5FBF3F5056130BD0010024000127A0029
:101EF00000093D00000000201000002021B10288F0
:101F000042F04002028004E002884FF6BF731A409C
:101F1000028070470246002013890B400BB101205C
:101F200000E0002070470146888970478181704732
:101F300010B50022028802F441520B884C882343DA
:101F40008C882343CC8823430C8923434C89234327
:101F50008C892343CC8923431A430280838B4FF21D
:101F6000FF74234083830B8A038210BD704710B532
:101F700000F002F810BD00000CB5002001900090A8
:101F80003348006840F480303149086000BF304871
:101F9000006800F4003000900198401C0190009807
:101FA00018B90198B0F5A06FF1D12948006800F484
:101FB000003010B10120009001E000200090009856
:101FC000012843D12348006840F0100021490860EF
:101FD0000846006820F0030008600846006840F0EA
:101FE000020008601A48406819494860084640687D
:101FF00048600846406840F4806048600846406891
:1020000020F47C1048600846406840F4E8104860BE
:102010000846006840F08070086000BF0C48006807
:1020200000F000700028F9D00948406820F0030053
:10203000074948600846406840F00200486000BF19
:102040000348406800F00C000828F9D10CBD0000DE
:1020500000100240002002407047000010B51348F5
:10206000006840F0010011490860084640681049C6
:1020700008400E494860084600680E4908400B4970
:1020800008600846006820F4802008600846406820
:1020900020F4FE0048604FF41F008860FFF767FFE0
:1020A0004FF000600449086010BD000000100240BD
:1020B0000000FFF8FFFFF6FE08ED00E010B501217B
:1020C000104800F07DF8D8B101210E4800F066F804
:1020D0000D48007840B901200B4908700122802189
:1020E0000A48FEF7BAFE0BE007480078012807D13E
:1020F000002005490870002280210448FEF7ADFE4B
:1021000010BD000000040040EF060020001C01404C
:1021100010B501211B4800F053F888B3012119487C
:1021200000F03CF818480088401C17490880174800
:102130000078012810D1084600881549098888428E
:102140001EDB00201149087012480078FFF7CEF816
:1021500000200D49088013E00C48007880B90A4837
:1021600000880D49098888420ADB01200749087068
:10217000002211461046FFF75DF800200249088052
:1021800010BD000000080040E8060020EE06002018
:10219000EC060020E6060020EA060020CA43028280
:1021A000704721B1028842F00102028004E00288F7
:1021B0004FF6FE731A40028070470146888C7047C4
:1021C00030B50246002000230024158A05EA0103E9
:1021D000958905EA010413B10CB1012000E000204B
:1021E00030BD1AB183890B43838102E083898B431D
:1021F0008381704781847047002202881D4B98427A
:102200000ED01D4B98420BD0B0F1804F08D01B4B25
:10221000984205D01A4B984202D01A4B984204D1EA
:102220004FF68F731A404B881A43174B984207D0CA
:10223000164B984204D04FF6FF431A40CB881A43FE
:1022400002808B8883850B8803850A4B98420BD0CC
:10225000094B984208D00E4B984205D00D4B98423E
:1022600002D00D4B984201D10B7A03860123838261
:1022700070470000002C0140003401400004004081
:1022800000080040000C0040001000400014004016
:1022900000400140004401400048014010B540F2B8
:1022A00025510A4800F031F878B109480078FF2834
:1022B0000BDA064800F0E4F80649054A127888541B
:1022C00003480078401C0249087010BD00480040D7
:1022D000F00600207E17002021B1828942F40052CE
:1022E000828104E082894DF6FF731A408281704733
:1022F00002460020B1F5007F00D100BF13880B40DB
:102300000BB1012000E00020704770B502460024A8
:1023100000230025002040F66A16B14200D100BF1C
:10232000C1F3421501F01F03012606FA03F3012D44
:1023300002D19689334006E0022D02D1168A33403D
:1023400001E0968A33400C12012606FA04F416883E
:10235000344013B10CB1012000E0002070BDF0B595
:102360000346002400260025002040F66A17B942E3
:1023700000D100BF1846C1F3421401F01F06012727
:1023800007FA06F5012C01D10C3004E0022C01D132
:10239000103000E014301AB107682F43076002E0E4
:1023A0000768AF430760F0BD2DE9F04786B00546EA
:1023B0000E460024A24600BFA1460027B08900B106
:1023C00000BF2F462C8A4CF6FF700440F08804436F
:1023D0002C82AC894EF6F3100440B0883189084352
:1023E000718908430443AC81AC8A4FF6FF40044036
:1023F000B0890443AC8201A8FFF716FD1F4887424D
:1024000002D1DDF810A001E0DDF80CA0A88900F4ED
:10241000004040B10AEBCA0000EB0A1031684900E5
:10242000B0FBF1F807E00AEBCA0000EB0A103168D4
:102430008900B0FBF1F86420B8FBF0F0040120093A
:10244000642101FB1089A88900F4004040B13220CA
:1024500000EBC900B0FBF1F000F00700044308E016
:10246000322000EB09106421B0FBF1F000F00F0006
:1024700004432C8106B0BDE8F0870000003801401D
:1024800001468888C0F308007047C1F308028280C3
:10249000704700BFFEE7000070B50546002405E068
:1024A000601CC4B2C82C01DD002070BD02210E48A2
:1024B000FFF730FD0028F3D029460B48FFF736FD23
:1024C000002405E0601CC4B2C82C01DD0020ECE74C
:1024D00001210548FFF71EFD0028F3D00248FFF751
:1024E00022FDC0B2E1E700000038004010B504460C
:1024F000240300F02DF900F0C5F80021084600F093
:1025000077F82020FFF7C8FFC4F30740FFF7C4FFA8
:10251000C4F30720FFF7C0FFE0B2FFF7BDFF0121C2
:10252000002000F065F800F0ADF810BD00B587B0F0
:1025300000F08EF901210820FFF766FC01218803D5
:10254000FFF752FC18208DF81B004FF42040ADF827
:10255000180003208DF81A0006A92348FEF7E9FBAE
:1025600004208DF81B000003ADF8180003208DF83F
:102570001A0006A91C48FEF7DCFB4FF48050ADF8AA
:10258000180010208DF81B0003208DF81A0006A9F2
:102590001548FEF7CEFB0020ADF810000120ADF885
:1025A0000C000220ADF80A000720ADF8140000204E
:1025B000ADF80800ADF80400ADF812004FF48270D9
:1025C000ADF806004FF40070ADF80E0001A9074801
:1025D000FFF7AEFC01210548FFF790FC0121002028
:1025E00000F006F807B000BD000C014000380040C4
:1025F00070B504460D46012605B900262CB93246B1
:102600004FF480510148FEF728FC70BD000C0140DA
:102610002DE9F04106460C46174600210846FFF713
:10262000E7FF0320FFF738FFC4F30740FFF734FF4D
:10263000C4F30720FFF730FFE0B2FFF72DFF0025BE
:1026400005E0FF20FFF728FF7055681C85B2BD42EA
:10265000F7DB01210020FFF7CBFFBDE8F08110B5CB
:10266000002400210846FFF7C3FF0520FFF714FFF1
:10267000FF20FFF711FF044601210020FFF7B8FFFC
:10268000204610BD10B500BFFFF7E9FF00F00100C4
:102690000028F9D110BD00002DE9F05F81460F46FA
:1026A0001646DFF8A8B04FEA1738C7F30B0ACAF589
:1026B0008054A64200DC344644E04FEA08314FF42F
:1026C00080525846FFF7A4FF002508E00AEB0500FA
:1026D0001BF80000FF2800D003E0681C85B2A5426B
:1026E000F4DB00BFA54216DA4046FFF7FFFE0025E7
:1026F00007E019F8050005EB0A010BF80100681C5A
:1027000085B2A542F5DB4FEA08314FF480525846B6
:1027100000F055F804E022463946484600F04FF8EC
:10272000A64200D10FE008F101084FF0000AA144D1
:102730002744301B86B2B6F5805F02DD4FF480542B
:1027400000E03446B9E700BFBDE8F09F7E070020F7
:1027500010B500210846FFF74BFF0620FFF79CFE4F
:1027600001210020FFF744FF10BD2DE9F04106468E
:102770000C461746FFF7ECFF00210846FFF738FF2D
:102780000220FFF789FEC4F30740FFF785FEC4F37C
:102790000720FFF781FEE0B2FFF77EFE002504E090
:1027A000705DFFF779FE681C85B2BD42F8DB012140
:1027B0000020FFF71DFFFFF765FFBDE8F0812DE961
:1027C000F04107460E461446F0B2C0F58075AC42A3
:1027D00000DC254612E02A4631463846FFF7C5FFA1
:1027E000AC4200D10BE02F442E44601B84B2B4F500
:1027F000807F02DD4FF4807500E02546EBE700BFE7
:10280000BDE8F08130380A2801D20120704700204D
:1028100070472DE9FC410026002414E02502002722
:102820000DE0082229466846FFF7F2FE9DF80000F9
:10283000FF2801D1701CC6B20835781CC7B21E2F04
:10284000EFDB601CC4B2032CE8DB3046BDE8FC8142
:102850000EB50E480078C0B901210846FFF7C4FA4A
:102860004820ADF800000020ADF80600ADF80200E9
:102870004EF66020ADF8040069464FF08040FFF747
:10288000BBFC01200149087000BF0EBDE506002019
:1028900070B5044600214FF08040FFF7ABFC0121EA
:1028A0008807FFF77EFC00250DE000BF4FF0804059
:1028B000FFF783FCB0F57A7FF8DB00214FF0804012
:1028C000FFF798FC6D1CA542EFD300214FF080402C
:1028D000FFF767FC70BD10B504464CF250308442DF
:1028E00013DC00218006FFF785FC01218807FFF734
:1028F00058FC00BF4FF08040FFF75FFCA042F9DBBF
:1029000000214FF08040FFF74CFC10BD01B58AB0AC
:102910000A98012833D1FD48FD49097810F82100B3
:10292000FCA30246012109900020FEF72FFFF74883
:10293000F749097800EB81004078FAA302460121AB
:1029400009900846FEF722FFF048F149097800EBAC
:1029500081008078F7A30246012109900220FEF74A
:1029600015FFEA48EA49097800EB8100C078F5A331
:102970000246012109900320FEF708FF8AE20A9827
:10298000022833D1E148E249097810F82100F2A386
:102990000246012109900020FEF7F8FEDB48DC49E1
:1029A000097800EB81004078EEA3024601210990EE
:1029B0000846FEF7EBFED548D549097800EB8100C3
:1029C0008078ECA30246012109900220FEF7DEFE8A
:1029D000CE48CF49097800EB8100C078D9A30246E0
:1029E000012109900320FEF7D1FEC7E70A980328CA
:1029F00060D1002009904CE0E14801780998084432
:102A0000C0B206AB08AA01460590DE48007802F085
:102A1000B7FC9DF8200058B9D948017809980844B6
:102A2000401C0246D8A10590DB48FDF717FC1EE0CC
:102A30009DF8200001281AD19DF81C009DF81B105C
:102A40009DF81A209DF81930CDE90032CDE9021029
:102A50009DF818000590CA48017809980844401C60
:102A600004900246CDA1CC48059BFDF7F7FBA74893
:102A7000A749097800EB81010998085CC64B02461A
:102A8000002105900998FEF781FE0998401CC0B20C
:102A9000099009980328AFDB9C489D49097800EB11
:102AA0008100C078A7A30246012109900320FEF708
:102AB0006DFE63E70A9804284CD1002009900BE0D2
:102AC000BE490998085C3030C1B2B34A0998115424
:102AD0000998401CC0B20990B94909780998884200
:102AE000EEDB0020AC49B64A127888548748884902
:102AF000097810F82100B3A30246012109900020B3
:102B0000FEF744FE81488249097800EB8100407855
:102B1000A14B0246012109900846FEF737FE7B488B
:102B20007B49097800EB810080788AA30246012165
:102B300009900220FEF72AFE74487549097800EBD7
:102B40008100C0787FA30246012109900320FEF78F
:102B50001DFE13E70A98052833D16C486C490978A3
:102B600010F821009BA30246012109900020FEF7E6
:102B70000DFE66486649097800EB8100407897A30E
:102B80000246012109900846FEF700FE5F486049B1
:102B9000097800EB810080786EA30246012109903C
:102BA0000220FEF7F3FD59485949097800EB8100EE
:102BB000C0788DA30246012109900320FEF7E6FDAF
:102BC000DCE60A98062852D1002009903EE06C48C5
:102BD000017809980844C0B207AB08AA01460690DC
:102BE0006848007802F0A0FB9DF8200001280DD174
:102BF0006348017809980844401C06909DF81C30F1
:102C000002467EA16448FDF729FB0DE09DF82000F7
:102C100050B95B48017809980844401C02467BA1E2
:102C200006905D48FDF71AFB38483949097800EBF2
:102C300081010998085C584B0246002106900998CA
:102C4000FEF7A4FD0998401CC0B20990099803281A
:102C5000BDDB2E482E49097800EB8100C07839A3EE
:102C60000246012109900320FEF790FD86E60A98AE
:102C7000072833D125482649097810F8210067A391
:102C80000246012109900020FEF780FD1F482049DF
:102C9000097800EB8100407864A302460121099085
:102CA0000846FEF773FD19481949097800EB8100C1
:102CB000807828A30246012109900220FEF766FDD4
:102CC00012481349097800EB8100C0785BA30246E3
:102CD000012109900320FEF759FD4FE60A980828C4
:102CE00012D10A480A49097810F8210039A302468E
:102CF000012109900020FEF749FD044804490978A4
:102D000000EB81004078A3E0C5E00000DE00002079
:102D1000DD00002041646D696E204163636F756E54
:102D20007473000055736572204163636F756E7430
:102D3000730000004F746865722053657474696E87
:102D4000677300004261636B202020202020204513
:102D50006E7465720000000050617373776F726467
:102D60007300000046696E6765727072696E7473F5
:102D700000000000494320436172647300000000BA
:102D8000F4000020F30000205B5057253032755DC1
:102D900020456D7074790000F40600205B505725C3
:102DA0003032755D25303258253032582530325852
:102DB00025303258253032580000000074070020BA
:102DC000D30000204E65772050617373776F726473
:102DD0003A00000044656C657465000050617373CF
:102DE000776F72643F0000004E6F2020202020206B
:102DF0002020202020596573000000005B465025EC
:102E00003032755D20253032750000005B4650255C
:102E10003032755D20456D707479000052656164D3
:102E20007920746F205265636F72640046696E6723
:102E300065727072696E742E000000004261636BEF
:102E400020202020202020204E65787400000000E3
:102E5000FAA30246012109900846FEF797FCFB48B9
:102E6000FB49097800EB81008078F7A30246012135
:102E700009900220FEF78AFCF448F549097800EB36
:102E80008100C078AFF2A00302460121099003201F
:102E9000FEF77CFC8BE30A9809285ED1002009909C
:102EA00049E0EC48017809980844C0B207AB08AA89
:102EB00001460690E848007802F001FA9DF82000EB
:102EC00058B9E448017809980844401C0246E3A137
:102ED0000690E648FDF7C2F91BE09DF820000128A6
:102EE00017D19DF81F009DF81E109DF81D20CDE9FB
:102EF000002102909DF81C000690D64801780998A0
:102F00000844401C05900246D9A1D848069BFDF70D
:102F1000A5F9CE48CE49097800EB81010998085CF3
:102F2000D24B0246002106900998FEF72FFC099823
:102F3000401CC0B2099009980328B2DBC348C449B9
:102F4000097800EB8100C078AFF208230246012126
:102F500009900320FEF71AFC29E30A980A2834D1C5
:102F6000BA48BB49097810F82100C8A302460121DC
:102F700009900020FEF70AFCB448B549097800EB37
:102F800081004078C5A30246012109900846FEF75A
:102F9000FDFBAE48AE49097800EB81008078AAA31A
:102FA0000246012109900220FEF7F0FBA748A8493C
:102FB000097800EB8100C078AFF28013024601214E
:102FC00009900320FEF7E2FBF1E20A980B2834D1C6
:102FD0009E489F49097810F821009BA302460121D1
:102FE00009900020FEF7D2FB98489949097800EB38
:102FF00081004078ACA30246012109900846FEF703
:10300000C5FB92489249097800EB810080788EA335
:103010000246012109900220FEF7B8FB8B488C493B
:10302000097800EB8100C078AFF244230246012109
:1030300009900320FEF7AAFBB9E20A980C2850D1A8
:10304000002009903BE09C480078032190FBF1F0C0
:1030500000EB4001099808449849097888421CDA35
:1030600095480078032190FBF1F000EB40010998AE
:10307000084400EB001192480844089073487449D2
:10308000097800EB81010998085C0790024601214C
:10309000DDE90830FEF77AFB0DE06C496C480078FA
:1030A00001EB80010998085C67A3024601210890A2
:1030B0000998FEF76BFB0998401CC0B2099009986B
:1030C0000328C0DB61486249097800EB8100C078C1
:1030D000AFF290330246012109900320FEF756FB20
:1030E00065E20A980D2834D158485949097810F8F2
:1030F000210074A30246012109900020FEF746FB3F
:1031000052485349097800EB8100407871A3024688
:10311000012109900846FEF739FB4C484C490978D3
:1031200000EB810080786FA3024601210990022004
:10313000FEF72CFB45484649097800EB8100C07832
:10314000AFF25C330246012109900320FEF71EFB1B
:103150002DE20A980E2856D13C483D49097810F8CE
:10316000210063A30246012109900020FEF70EFB17
:103170000020099043E060480178032091FBF0F0C3
:1031800000EB4001099808445C490978884220DA3C
:1031900059480078032190FBF1F000EB40010998B9
:1031A000084400EB00105649084408902748284975
:1031B000097800EB81010998401C085C0790099888
:1031C000401CC0B206900121DDE90723FEF7DEFABC
:1031D00011E01E481E49097800EB81010998401C46
:1031E000085C08900998401CC0B217A30790012101
:1031F000089AFEF7CBFA0998401CC0B209900998CA
:103200000328B8DBD3E10A980F2816D13D4800788F
:1032100090B90E480E49097810F821003AA30246E9
:10322000012109900020FEF7B1FA08480849097801
:1032300000EB810040786FE076E0B0E046696E67B1
:1032400065727072696E743F00000000DE0000203D
:10325000DD000020F4000020F30000205B43442543
:103260003032755D20456D7074790000F4060020E1
:103270005B4344253032755D20253032582530328D
:1032800058253032582530325800000052656164AC
:103290007920746F20416464000000004E6577203F
:1032A000436172642E00000052656D6F76652043A5
:1032B0006172643F000000008D0000208E0000203D
:1032C0008F00002041726520796F752073757265DB
:1032D00000000000746F2072656D6F766520616C70
:1032E0006C0000006163636F756E74733F000000D3
:1032F00041626F757400000014000020150000206A
:1033000016000020D80000204D6F646520203C206E
:10331000204F6666203E0000A6A3024601210990C8
:103320000846FEF733FA1EE0A648A749097810F8C8
:103330002100A6A30246012109900020FEF726FAEB
:10334000A6480278A6A1AA48FCF788FF9D489E4996
:10335000097800EB81004078A54B024601210990D5
:103360000846FEF713FA97489749097800EB810061
:103370008078AFF22C130246012109900220FEF75B
:1033800005FA90489049097800EB8100C07899A32C
:103390000246012109900320FEF7F8F907E10A9897
:1033A000102835D187488849097810F82100AFF2F4
:1033B000EC030246012109900020FEF7E7F981485D
:1033C0008149097800EB810040788FA302460121F2
:1033D00009900846FEF7DAF97A487B49097800EB4C
:1033E000810080788CA30246012109900220FEF71B
:1033F000CDF974487449097800EB8100C078AFF2C8
:1034000018630246012109900320FEF7BFF9CEE0C0
:103410000A9832287CD16B486B49097810F8210052
:1034200078A30246012109900020FEF7AFF9654814
:103430006549097800EB810040787AA302460121B2
:1034400009900846FEF7A2F95E485F49097800EB4B
:10345000810080786BA30246012109900220FEF7CB
:1034600095F97348007830BB002009900BE0714952
:103470000998085C3030C1B25D4A09981154099826
:10348000401CC0B209906C49097809988842EEDB6B
:1034900000215748684A127881544A484A490978B5
:1034A00000EB8100C078524B0246012109900320B5
:1034B000FEF76CF97BE043204D490870002009902D
:1034C0000CE05E490998085C3030C1B2484A09985E
:1034D000401C11540998401CC0B209905849097801
:1034E00009988842EDDB0022414955480078401C8C
:1034F0000A5434483449097800EB8100C0783C4BC9
:103500000246012109900320FEF740F94FE0FFE752
:103510000A9833284BD12B482B49097810F8210001
:1035200038A30246012109900020FEF72FF9254813
:103530002549097800EB8100407842A30246012129
:1035400009900846FEF722F91E481F49097800EB4A
:10355000810080782BA30246012109900220FEF70A
:1035600015F9002009900BE032490998085C3030C9
:10357000C1B21F4A099811540998401CC0B2099061
:103580002D49097809988842EEDB002118482A4A1B
:10359000127881540B480C49097800EB8100C078FF
:1035A000134B0246012109900320FEF7EFF80BB000
:1035B00000BD000044656C6179203C20204E412014
:1035C000203E0000DE000020DD0000204D6F64651D
:1035D00020203C20204F6E20203E0000D9000020FB
:1035E00044656C6179203C2020257573203E0000E5
:1035F000F40600204261636B202020202020202040
:103600005361766500000000746F20726573657405
:1036100020616C6C0000000073657474696E6773E0
:103620003F000000446F6F72204C6F636B65640055
:10363000D700002074070020D3000020D400002011
:10364000D600002053657474696E67730000000033
:103650008AB0FFF7FDF8FDF7C3FFFDF705FCFDF7A6
:10366000C9FAFDF7A1FDFDF723FAFEF711FAFEF7FF
:103670005DFFFDF78DFE02F00BF9FA49FA4801F003
:10368000B0FE0320F94908703220F9490870084655
:103690000078FFF73BF9002002F03EFA0120FDF729
:1036A0009DFE01F038BDFDF73DFC0446FF2C02D025
:1036B000002001F039FDEE480078012865D1012C89
:1036C0000DD1EA4800780028EBDDE8480078401E7C
:1036D000E6490870E6480078FFF718F9E1E7072C9B
:1036E0000DD1E24800780228DBDAE0480078401C7F
:1036F000DE490870DE480078FFF708F9D1E70B2CA7
:1037000032D1DA48007868B90020DA49087002201E
:10371000D74908700020D5490870D5480078FFF7D0
:10372000F5F8BEE7D148007801280CD1D1490870DE
:103730000220CF4908700020CC490870CC4800789E
:10374000FFF7E4F8ADE7C94800780228A9D10C20BA
:10375000C74908700020C8490870C4490870C448A7
:103760000078FFF7D3F89CE7092C9AD13220C049A2
:1037700008700020C1490870C14908700320BB4986
:1037800008703220FFF7C2F88BE7B94800780228AA
:103790006AD1012C0DD1B548007800289EDDB348D0
:1037A0000078401EB1490870B1480078FFF7AEF8C4
:1037B00077E7072C0DD1AD48007802288EDAAB48A8
:1037C0000078401CA9490870A9480078FFF79EF8C6
:1037D00067E7092C14D10120A5490870A548007895
:1037E00018B90020A149087005E0A2480078012816
:1037F00001D19E4908709E480078FFF787F850E78E
:103800000B2C8ED19948007860B903209849087034
:103810000020964908709B49087095480078FFF78A
:1038200075F83EE79148007801280CD106209049B0
:10383000087000208D490870924908708C48007803
:10384000FFF764F82DE78948007802288BD109201A
:10385000874908700020854908708A4908708448A3
:103860000078FFF753F81CE781480078032875D1EA
:10387000012C0DD17D480078002885DD7B4800783B
:10388000401E7A4908707A480078FFF73FF808E749
:10389000072C0DD175480078022889DA7348007822
:1038A000401C7249087072480078FFF72FF8F8E65C
:1038B000032C10D173480078032889DB7148007805
:1038C000C01E704908700020684908706848007878
:1038D000FFF71CF8E5E6052C10D16A480078182897
:1038E0008DDC68480078C01C6649087000205F497C
:1038F00008705F480078FFF709F8D2E6092C0AD172
:1039000002205B4908700020584908705848007828
:10391000FEF7FCFFC5E60B2C94D15A480078534AB9
:1039200012781044C1B207AB09AA5248007801F0DE
:1039300027FD9DF8240090B904204D4908704B489C
:1039400000785149087004204849087000204C490B
:10395000087047480078FEF7D9FF12E012E09DF8A2
:10396000240001280DD10520414908703F48007806
:103970004549087004203D4908703D480078FEF72D
:10398000C5FF8EE63A48007804286AD1002C14DB83
:10399000082C12DC3A4800780A2888DA601C3B4977
:1039A000374A1278885436480078401C34490870E9
:1039B0002F480078FEF7AAFF73E60A2C12D1304890
:1039C00000780A2886DA002030492D4A1278885477
:1039D0002B480078401C2A49087025480078FEF7DB
:1039E00095FF5EE6092C0BD103202149087026487B
:1039F00000781E4908701E480078FEF787FF50E6E1
:103A00000B2C87D11E48007804286DDB002008901D
:103A1000099000BF43E01A490978B1EB400F09DD76
:103A200008A9095C194A12F8102001EB021108AA32
:103A3000115404E008A9095CF03108AA11540121CD
:103A400001EB40010E4A1278914221DA08A9095C83
:103A5000012202EB40020D4B9A5C114408AA11545A
:103A60001BE058E0D9000020D8000020DD00002035
:103A7000F2000020F30000208D000020D70000207D
:103A8000D3000020F4000020DC0000207407002098
:103A900008A9095C0F3108AA1154411CC8B20528B5
:103AA000B9DBF8480078F84A12781044C1B208AA85
:103AB000F648007802F054F8FDF706FDF4A3002262
:103AC00001210846FDF762FE4FF47A70FEF7E0FE32
:103AD0000320F3490870EC480078F2490870F04878
:103AE0000078FEF713FFDCE5FDF7EEFCEEA3002205
:103AF00001210846FDF74AFEEEA300220121022023
:103B0000FDF744FE4FF47A70FEF7C2FEE4480078F9
:103B1000FEF7FCFEC5E5E2480078052837D1092C00
:103B20000BD10320DE490870D7480078DD490870C2
:103B3000DB480078FEF7EAFEB3E50B2CD3D1D14881
:103B40000078D14A12781044C1B2D048007801F010
:103B500085FEFDF7B9FCD4A3002201210846FDF73C
:103B600015FED7A3002201210220FDF70FFE4FF41E
:103B70007A70FEF78DFE0320C9490870C2480078AC
:103B8000C8490870C6480078FEF7C0FE89E5C448F9
:103B90000078062872D1012C0DD1C2480078002887
:103BA000A1DDC0480078401EBE490870BC480078BE
:103BB000FEF7ACFE75E5072C0DD1BA480078022857
:103BC00091DAB8480078401CB6490870B4480078CB
:103BD000FEF79CFE65E5032C10D1AA480078032867
:103BE00098DBA8480078C01EA64908700020AD499F
:103BF0000870AB480078FEF789FE52E5052C10D11D
:103C0000A0480078182885DC9E480078C01C9D4993
:103C100008700020A3490870A1480078FEF776FEDE
:103C20003FE5092C0AD102209D49087001209D49D9
:103C300008709B480078FEF769FE32E50B2CA5D191
:103C400090480078974A12781044C1B208AB09AA8C
:103C50008E48007801F068FB9DF8240078B90720B1
:103C60008F4908708F4800788749087004208D4973
:103C700008708B480078FEF749FE12E012E09DF8CC
:103C8000240001280DD10820854908708548007856
:103C90007D49087004208349087081480078FEF748
:103CA00035FEFEE47E480078072825D1092C0BD18B
:103CB00006207B490870744800787A490870784873
:103CC0000078FEF723FEECE40B2C96D10620744915
:103CD00008706C4800786C4A12781044C1B26B4886
:103CE000007801F097FB684800786E4908706C48CE
:103CF0000078FEF70BFED4E469480078082837D135
:103D0000092C0BD10620664908705F480078654988
:103D1000087063480078FEF7F9FDC2E40B2C8CD1E3
:103D200058480078584A12781044C1B25748007871
:103D300001F06FFDFDF7C8FB64A3002201210846D6
:103D4000FDF724FD5EA3002201210220FDF71EFDE8
:103D50004FF47A70FEF79CFD0620514908704A48DE
:103D60000078504908704E480078FEF7CFFD98E47F
:103D70004B480078092871D1012C0DD149480078B1
:103D800000288EDD47480078401E464908704448A8
:103D90000078FEF7BBFD84E4072C0DD14148007884
:103DA000022890DA3F480078401C3E4908703C48A1
:103DB0000078FEF7ABFD74E4032C10D13148007895
:103DC000032898DB2F480078C01E2E490870002079
:103DD0003449087032480078FEF798FD61E4052CFC
:103DE00010D128480078182885DC26480078C01CA7
:103DF0002449087000202B49087029480078FEF7F4
:103E000085FD4EE4092C09D1022025490870254979
:103E1000087023480078FEF779FD42E40B2CA6D108
:103E2000184800781F4A12781044C1B208AB09AA9A
:103E30001648007801F043FA9DF8240078B90A206A
:103E400017490870174800780F4908700420154971
:103E5000087013480078FEF759FD12E03CE09DF829
:103E6000240001280DD10B200D4908700D48007861
:103E70000549087004200B49087009480078FEF7CE
:103E800045FD0EE4F4000020DC000020F3000020DB
:103E900050617373776F7264205365742100000062
:103EA000F2000020DD00002050617373776F7264B0
:103EB00000000000546F6F2053686F7274000000A0
:103EC00044656C65746564210000000046696E6796
:103ED00065727072696E7400FD4800780A2825D1F9
:103EE000092C0BD10920FA490870FA480078FA49E0
:103EF0000870F7480078FEF709FD12E40B2C8CD10E
:103F0000F6480078F34A12781044C1B2F4480078B9
:103F100001F094FB0920EE490870EE480078EE4964
:103F20000870EB480078FEF7F1FC0BE4E8480078F5
:103F30000B2831D1092C0BD10920E5490870E5483F
:103F40000078E5490870E2480078FEF7DFFC0AE4F3
:103F50000B2C96D1E1480078DE4A12781044C1B2A9
:103F6000DF48007801F038FCFDF7AEFADDA300224F
:103F700001210846FDF70AFC4FF47A70FEF788FC31
:103F80000920D3490870D3480078D3490870D04835
:103F90000078FEF7BBFC0BE4CD4800780C2872D10A
:103FA000012C17D1D3480078032190FBF1F201FBDB
:103FB00012000028A1DDCF480078401ECD490870CE
:103FC000C5480078401EC4490870C1480078FEF713
:103FD0009DFC14E4072C1ED1C6480078401CC6493D
:103FE0000978884289DAC3480078032190FBF1F20E
:103FF00001FB1200022898D0BE480078401CBD4941
:104000000870B5480078401CB3490870B048007883
:10401000FEF77CFC05E4032C15D1B6480078032894
:1040200095DBB4480078032190FBF1F0401E00EBD3
:104030004000B04908700020A7490870A4480078E3
:10404000FEF764FC0FE4052C1ED1AA48007803217A
:1040500090FBF1F0401C00EB4000A7490978884232
:1040600099DAA4480078032190FBF1F0401C00EBA2
:104070004000A049087000209749087094480078D3
:10408000FEF744FC13E44BE0092C0AD101209049CF
:1040900008700220904908708D480078FEF736FCC1
:1040A00005E40B2C95D19348007850B90F2088492E
:1040B000087000208849087085480078FEF726FCC3
:1040C00008E48C48007801280AD10D208049087046
:1040D0000420814908707E480078FEF717FC0CE444
:1040E0008448007802280AD11020794908700420F9
:1040F0007949087076480078FEF708FC0AE47D48A4
:104100000078032886D10E2071490870002072497A
:1041100008707A4908706E480078FEF7F7FB30E4C3
:104120006B4800780D2841D1092C10D10C2068492A
:10413000087070480078032190FBF1F201FB120037
:104140006549087062480078FEF7E0FB19E40B2C23
:1041500098D1FDF7B9F96AA3002201210846FDF7BD
:1041600015FB6BA3002201210220FDF70FFB01F0DC
:104170001DFBFDF7A9F969A3002201210846FDF7FF
:1041800005FB40F2DC50FEF783FB0C205049087021
:1041900058480078032190FBF1F201FB12004E49D0
:1041A00008704B480078FEF7B1FB05E448480078FA
:1041B0000E2839D1092C10D10C20454908704D48E2
:1041C0000078032190FBF1F201FB120042490870D4
:1041D0003F480078FEF79AFB11E4012C01D0032C34
:1041E0000DD146480078032888DB44480078C01E7B
:1041F0004249087036480078FEF788FB73E4052CC6
:1042000001D0072C8BD13D480078C01C4549097866
:10421000884284DA39480078C01C384908702C4834
:104220000078FEF773FB5EE4294800780F284ED132
:10423000012C0DD128480078002887DD2648007819
:10424000401E2549087022480078FEF75FFB4AE4CB
:10425000072C0DD1204800780128A6DA1E480078E6
:10426000401C1D4908701A480078FEF74FFB3AE4DD
:10427000032C62D11848007890B92B48007818B9FF
:1042800001202949087006E027480078012802D15A
:104290000020254908700E480078FEF737FB22E41D
:1042A0000D480078012897D11F480078012893D144
:1042B0001E4800780A381E49097888428CDB1B4862
:1042C00000780A38194908700148007832E0A1E006
:1042D000F2000020DC000020DD000020F4000020BF
:1042E000F3000020436172642052656D6F7665644F
:1042F000210000008D0000208E000020140000200E
:1043000052656D6F76696E6720416C6C000000002D
:104310004163636F756E74732E2E2E00446F6E654D
:104320002E00000015000020D8000020D900002039
:10433000DA000020FEF7EAFA28E4052C2ED1FE4828
:10434000007890B9FD48007818B90120FB49087041
:1043500006E0FA480078012802D10020F7490870E9
:10436000F7480078FEF7D2FA10E4F3480078012805
:1043700095D1F2480078012891D1F24800780A30AE
:10438000F149097888428ADCEE4800780A30ED4924
:104390000870EB480078FEF7B9FA0BE4092C14D149
:1043A000E849E64801F01DF80C20E5490870E748A7
:1043B0000078032190FBF1F201FB1200DE49087046
:1043C000DF480078FEF7A2FA04E40B2CB4D1DD48F4
:1043D0000178DA48007801F0A3FAFDF775F8DCA35C
:1043E000002201210846FDF7D1F94FF47A70FEF75B
:1043F0004FFA0C20D2490870D4480078032190FB72
:10440000F1F201FB1200CC490870CD480078FEF7AC
:104410007DFA05E4CA48007810284AD1092C10D149
:104420000C20C7490870C9480078032190FBF1F2BD
:1044300001FB1200C0490870C1480078FEF766FA17
:104440002FE40B2C90D1FDF73FF8C3A300220121EC
:104450000846FDF79BF9C3A3002201210220FDF7C6
:1044600095F901F0A3F90A21012001F059FAB549A3
:10447000B24800F0B6FFFDF727F8AFF26013002254
:1044800001210846FDF782F940F2DC50FEF700FA00
:104490000C20AB490870AD480078032190FBF1F285
:1044A00001FB1200A4490870A5480078FEF72EFA17
:1044B00009E4A348007832287DD1FCF76BFB012882
:1044C0007AD1AC480078002877D1C820FEF7E0F90F
:1044D000FCF760FB0128F7D13220FEF7D9F900265E
:1044E000FCF782F968B90120FCF736F948B906A84B
:1044F00007AB3C22002100900120FCF7E5F900B950
:104500000126052000F010FE012E77D1FCF7DCFF1C
:1045100099A3002201210846FDF738F9BDF81C00D7
:104520001E2807DABDF81C20521C97A19A48FBF7F9
:1045300095FE0FE0BDF81C001E280BDBBDF81C002B
:104540003C2807DABDF81C00A0F11D0293A1924897
:10455000FBF784FE904B002201210220FDF716F9A3
:10456000012001F0D9FA0020FCF738FF4FF4FA706F
:10457000FEF78EF9012000F0D7FD0025002710E09E
:10458000FCF7D0FC40B9012D06D0012587A30022FD
:1045900001210320FDF7FAF86420FEF779F9781C71
:1045A000C7B2202FECDB002001F0B6FA0120FCF7A7
:1045B00015FF022002E065E367E0B8E200F0B4FD19
:1045C0005E48007801282DD1012D2BD0002708E06E
:1045D000FCF7D2FE08B901250CE00A20FEF758F9D5
:1045E0007F1C5848007800EBC00101EB0010B7EBCE
:1045F000800FEDD300BF012D14D011E01CE0062088
:1046000000F092FD002708E0FCF7B6FE08B901258E
:1046100005E06420FEF73CF97F1C082FF4D300BFAF
:10462000012DECD1FDF746FB00206349087044489A
:104630000078FEF76BF927E036BBFCF745FF5FA378
:10464000002201210846FDF7A1F8AFF28073002295
:1046500001210220FDF79AF8022001F05DFA4FF4E3
:10466000FA70FEF715F9032000F05EFD4FF4FA60D2
:10467000FEF70EF9002001F04FFA00204E490870B5
:104680002F480078FEF742F9CDE208A92620FDF771
:10469000E6FA26284ED1374800780028F4D108A938
:1046A0002620FDF7DCFA4FF49670FEF7F1F808A922
:1046B0002620FDF7D4FA2628E6D109A8FDF7FDF952
:1046C0002628E1D1042000F02FFD05AB06AA07A99A
:1046D00009A801F039F99DF81C0001282BD1FCF73D
:1046E000F3FE25A3002201210846FDF74FF89DF8AF
:1046F000180038B99DF81420521C32A12648FBF747
:10470000ADFD0AE09DF81800012806D19DF814209F
:10471000521C30A12048FBF7A1FD1F4B00220121B4
:104720000220FDF733F8012001F0F6F90020FCF734
:1047300055FE57E0D9E0B7E0DD000020D8000020AA
:10474000F2000020D9000020DB0000208D000020B6
:1047500053617665642E0000526573657474696EEA
:1047600067000000416C6C2050726F66696C652EAA
:104770002E2E0000D7000020446F6F7220556E6C03
:104780006F636B65640000002841646D696E2046AC
:104790005025303275290000F40600202855736535
:1047A0007220465025303275290000002A49676E74
:1047B0006F7265642A000000D3000020496E7661A4
:1047C0006C6964002841646D696E20434425303271
:1047D00075290000285573657220434425303275D1
:1047E000290000004FF4FA70FEF752F8012000F0A3
:1047F0009BFC0025002611E0FCF794FB48B9012D35
:1048000007D00125AFF25C03002201210320FCF751
:10481000BDFF6420FEF73CF8701CC6B2202EEBDB17
:10482000002001F079F90120FCF7D8FD022000F00A
:104830007BFCFD48007801282CD1012D2AD00026D0
:1048400008E0FCF799FD08B901250CE00A20FEF705
:104850001FF8761CF548007800EBC00101EB001052
:10486000B6EB800FEDD300BF012D13D010E0062072
:1048700000F05AFC002608E0FCF77EFD08B901258F
:1048800005E06420FEF704F8761C082EF4D300BF80
:10489000012DECD1FDF70EFA0020E5490870E5483E
:1048A0000078FEF733F81FE0FCF70EFEE2A30022CB
:1048B00001210846FCF76AFF022001F02DF94FF4B0
:1048C000FA70FDF7E5FF032000F02EFC4FF4FA60CC
:1048D000FDF7DEFF002001F01FF90020D449087029
:1048E000D4480078FEF712F89DE1092C1BD1D0487E
:1048F0000078002805DDCE480078401ECC490870BD
:104900000CE0D148007830B90120CF490870002070
:10491000CE49087002E00020CB490870C5480078F5
:10492000FDF7F4FF7FE10B2C71D1C7480078002818
:104930006ED10027BE48007804283FDB0020049099
:10494000059000BF2CE0BA490978B1EB400F09DDB2
:1049500004A9095CBE4A12F8102001EB021104AA56
:10496000115404E004A9095CF03104AA1154012196
:1049700001EB4001AE4A127891420ADA04A9095CBF
:10498000012202EB4002B24B9A5C114404AA11547A
:1049900004E004A9095C0F3104AA1154411CC8B2F7
:1049A0000528D0DB06AB07AA03A904A801F041F84B
:1049B0009DF80C00012800D1012700BF4FBBFCF778
:1049C00083FDA4A3002201210846FCF7DFFEAFF619
:1049D0002833002201210220FCF7D8FE022001F03A
:1049E0009BF84FF4FA70FDF753FF032000F09CFB97
:1049F0004FF4FA60FDF74CFF002001F08DF8002025
:104A00008B4908708B480078FDF780FF8FE0B9E094
:104A10008EE0FFE7FCF758FDAFF2A423002201214E
:104A20000846FCF7B3FE9DF81C0038B99DF8182025
:104A3000521C8AA18D48FBF711FC0AE09DF81C006E
:104A4000012806D19DF81820521C89A18748FBF740
:104A500005FC864B002201210220FCF797FE012075
:104A600001F05AF80020FCF7B9FC4FF4FA70FDF79A
:104A70000FFF012000F058FB0025002611E0FCF795
:104A800051FA48B9012D07D00125AFF2E0230022E9
:104A900001210320FCF77AFE6420FDF7F9FE701C6B
:104AA000C6B2202EEBDB002001F036F80120FCF727
:104AB00095FC022000F038FB5B48007801282CD1DF
:104AC000012D2AD0002608E0FCF756FC08B9012584
:104AD0000CE00A20FDF7DCFE761C5448007800EB61
:104AE000C00101EB0010B6EB800FEDD300BF012D2C
:104AF00013D010E0062000F017FB002608E0FCF7BA
:104B00003BFC08B9012505E06420FDF7C1FE761CD9
:104B1000082EF4D300BF012DECD1FDF7CBF8002017
:104B20004349087043480078FDF7F0FE00BF7AE083
:104B30000025002645480078022809D10125504863
:104B400040784F49097801EB810100EB4100C6B282
:104B50003DB900203C49087036480078FDF7D6FE84
:104B60000FE03EB933203349087008460078FDF75E
:104B7000CDFE06E00020344908702E480078FDF78D
:104B8000C5FE50E0002C28DB082C26DC2E480078DF
:104B900078B9274800780A281ADA601CC1B22C4874
:104BA000234A1278815422480078401C204908701A
:104BB0000EE02648007802280ADA601CC1B23048AC
:104BC000224A1278815421480078401C1F490870FD
:104BD00018480078FDF79AFE25E00A2C23D11A48E0
:104BE000007870B9124800780A2818DA00201849AD
:104BF0000F4A127888540E480078401C0C490870FF
:104C00000DE012480078022809DA00201C490F4AFA
:104C1000127888540D480078401C0C4908700548EB
:104C20000078FDF773FE76E2D8000020D90000205E
:104C3000D3000020F2000020496E76616C69642088
:104C40004361726400000000D7000020D6000020FD
:104C50007407002057726F6E670000002841646D72
:104C6000696E20505725303275290000F406002067
:104C70002855736572205057253032752900000081
:104C8000D4000020FD4800783328CCD1FBF782FF08
:104C9000012865D1C820FDF7FBFDFBF77BFF01284C
:104CA0005DD13220FDF7F4FD0025FBF79DFD68B9CD
:104CB0000120FBF751FD48B906A807AB3C220021B3
:104CC00000900120FBF700FE00B90125052000F04F
:104CD0002BFA012D28D1BDF81C001E2824DAFCF780
:104CE000F3FBE7A3002201210846FCF74FFDBDF8C6
:104CF0001C20521CAFF27051E548FBF7AFFAE44BB1
:104D0000002201210220FCF741FD4FF4FA60FDF77B
:104D1000BFFD0120D94908700020DE490870D7483E
:104D20000078FDF7F3FD1AE0FCF7CEFBAFF2745309
:104D3000002201210846FCF729FDAFF6706300222E
:104D400001210220FCF722FD4FF4FA60FDF7A0FDDF
:104D50000020D1490870C9480078FDF7D7FDD9E196
:104D600008A92620FCF77BFF26285BD108A9FCF7C1
:104D700076FF4FF49670FDF78BFD08A92620FCF70F
:104D80006EFF2628EBD109A8FCF797FE2628E6D16E
:104D9000042000F0C9F905AB06AA07A909A800F08C
:104DA000D3FD9DF81C00012827D19DF8180020BBD9
:104DB000FCF78AFBB2A3002201210846FCF7E6FCBF
:104DC0009DF81420521CAFF20461B148FBF746FA7B
:104DD000AF4B002201210220FCF7D8FC4FF4FA600F
:104DE000FDF756FD0120A54908700020A94908706B
:104DF000A2480078FDF78AFD13E0FCF765FBAFF2EF
:104E0000C813002201210846FCF7C0FC4FF4FA60E9
:104E1000FDF73EFD0020A049087098480078FDF796
:104E200075FD77E1092C18D19B480078002809DD31
:104E300099480078401E9849087090480078FDF71E
:104E400065FD67E132208D490870002093490870A4
:104E50008A480078FDF75AFD5CE10B2C72D10020E6
:104E600007908D48007804283ADB002003900490D6
:104E700000BF2CE088490978B1EB400F09DD03A998
:104E8000095C874A12F8102001EB021103AA1154A1
:104E900004E003A9095CF03103AA1154012101EBDC
:104EA00040017D4A127891420ADA03A9095C012285
:104EB00002EB40027A4B9A5C114403AA115404E0BD
:104EC00003A9095C0F3103AA1154411CC8B205287B
:104ED000D0DB05AB06AA07A903A800F0AAFD00BF16
:104EE000FDF797FC78BB6FA103C9CDE90301002052
:104EF0000190029000BF2EE067490978B1EB400FA6
:104F000009DD01A9095C664A12F8102001EB0211C3
:104F100001AA115404E001A9095CF03101AA11545D
:104F2000012101EB40015C4A127891420CDA01A99F
:104F3000095C012202EB4002594B9A5C114401AA20
:104F4000115406E0BAE052E001A9095C0F3101AA50
:104F50001154411CC8B20528CEDB002500200AE010
:104F600001A9095C03AA125C914202D0691CCDB26E
:104F700003E0411CC8B20528F2DB00BFE5B9FCF72D
:104F8000A3FA3FA3002201210846FCF7FFFB47A339
:104F9000002201210220FCF7F9FB4FF4FA60FDF733
:104FA00077FC01203549087000203A4908703348E1
:104FB0000078FDF7ABFC19E0FCF786FAAFF26C3332
:104FC000002201210846FCF7E1FB3B4B00220121B6
:104FD0000220FCF7DBFB4FF4FA60FDF759FC0020E0
:104FE0002D49087025480078FDF790FC45E09DF8B4
:104FF0001C00012827D19DF8180020BBFCF764FA9B
:105000001FA3002201210846FCF7C0FB9DF81420D5
:10501000521CAFF2B8311E48FBF720F91C4B00229E
:1050200001210220FCF7B2FB4FF4FA60FDF730FCDF
:105030000120124908700020164908700F480078B6
:10504000FDF764FC19E0FCF73FFAAFF2F8330022F9
:1050500001210846FCF79AFB174B00220121022090
:10506000FCF794FB4FF4FA60FDF712FC00200A49AC
:10507000087002480078FDF749FC4BE0F200002080
:1050800041757468656E74696361746564000000DD
:10509000F4060020DD000020D3000020D70000200F
:1050A0007407002012345678FF000000284465661B
:1050B00061756C7429000000A83E0008002C15DB07
:1050C000082C13DC154800780A280ADA601CC1B2E3
:1050D0001348124A1278815410480078401C0F4936
:1050E000087010480078FDF711FC13E00A2C11D16C
:1050F0000A4800780A2809DA00200949074A127884
:10510000885406480078401C044908700548007817
:10511000FDF7FCFB00BFFEF7C6BA0000D30000207D
:1051200074070020F200002010B504466CB94FF45B
:10513000BE60FBF7D3FD0120FBF7A8FD4620FDF77D
:10514000A7FB0020FBF7A2FDB8E0012C30D140F214
:10515000FE40FBF7C3FD0120FBF798FD5020FDF753
:1051600097FB0020FBF792FD1420FDF791FB4FF415
:10517000BE60FBF7B3FD0120FBF788FD5020FDF773
:1051800087FB0020FBF782FD1420FDF781FB40F236
:10519000EC70FBF7A3FD0120FBF778FD5020FDF735
:1051A00077FB0020FBF772FD1420FDF771FB85E013
:1051B000022C30D14FF4BE60FBF790FD0120FBF7CD
:1051C00065FD5020FDF764FB0020FBF75FFD142018
:1051D000FDF75EFB40F2FE40FBF780FD0120FBF790
:1051E00055FD5020FDF754FB0020FBF74FFD142028
:1051F000FDF74EFB40F2F630FBF770FD0120FBF7A8
:1052000045FD5020FDF744FB0020FBF73FFD142037
:10521000FDF73EFB52E0032C0ED14FF4BE60FBF7CE
:105220005DFD0120FBF732FD4FF44870FDF730FBC8
:105230000020FBF72BFD41E0042C0DD140F68C2023
:10524000FBF74CFD0120FBF721FDFA20FDF720FBC9
:105250000020FBF71BFD31E0052C0DD14FF46670EB
:10526000FBF73CFD0120FBF711FD7D20FDF710FB56
:105270000020FBF70BFD21E0062C1FD140F6223069
:10528000FBF72CFD0120FBF701FD6420FDF700FB7F
:105290000020FBF7FBFC3220FDF7FAFA40F666002F
:1052A000FBF71CFD0120FBF7F1FC6420FDF7F0FA91
:1052B0000020FBF7EBFC3220FDF7EAFA10BD2DE9E8
:1052C000FC4105460C46164698461E2C2ADA25B99E
:1052D0004FF4007000EBC40705E0012D03D14FF43B
:1052E000A06000EBC407082239466846FDF790F934
:1052F0009DF8000010B90020307010E09DF800000B
:10530000FF280CD101203070002006E0011D1DF89F
:10531000011008F80010411CC8B20428F6DB002078
:10532000BDE8FC810120FBE72DE9FC4105460C4668
:10533000164698461E2C21DA1DB9E00000F580774C
:1053400004E0012D02D1E00000F580670822394613
:105350006846FDF75DF99DF8000010B90020307037
:1053600009E09DF80000FF2805D1012030709DF86C
:10537000070088F800000020BDE8FC810120FBE761
:105380002DE9FC4106460C46174698461E2C26DAA7
:105390000EB9E50004E0012E02D1E00000F54075F1
:1053A000082229466846FDF733F99DF8000010B938
:1053B0000020387010E09DF80000FF280CD101207B
:1053C0003870002006E0C11C1DF8011008F800101C
:1053D000411CC8B20528F6DB0020BDE8FC81012095
:1053E000FBE7F8B504460D464FF4C066022231468D
:1053F0006846FDF70DF99DF80000FF2802D1012055
:10540000207001E0002020709DF80100287000202D
:10541000F8BD00002DE9FC4106460C461E2C7CDA46
:10542000002564E05FE0FCF74FF860A30022012153
:105430000846FCF7ABF96A1C60A16548FAF70EFF55
:10544000634B002201210220FCF7A0F90BE0FBF7DF
:10545000A1FB012807D1C820FDF71AFAFBF79AFB38
:10546000012800D100E0F2E700BFFCF72DF859A3B6
:10547000002201210846FCF789F94FF44870FDF736
:1054800007FA0027FBF7B0F93844C7B2691CC8B265
:10549000FBF762F93844C7B20520FFF745FE57B95C
:1054A00050A3002201210220FCF770F94FF47A701A
:1054B000FDF7EEF918E04DA3002201210220FCF7D0
:1054C00065F94FF47A70FDF7E3F909E0FBF762FB49
:1054D00030B9C820FDF7DCF9FBF75CFB00B900E050
:1054E000F4E700BF00BF9EE700BF681CC5B2022DF5
:1054F00098DBFBF7B1F9002840D1FBF7E5FF3DA3AE
:10550000002201210846FCF741F93DA103C9CDE97C
:10551000000166B92146012000E044E0FBF75CFA97
:105520004FF4807000EBC4058DF807400EE0012EAB
:105530000CD104F11E010120FBF74EFAB00200EB82
:10554000C40504F11E00C0B28DF8070008222946E8
:105550006846FDF7A1F8FBF7B7FF2BA30022012156
:105560000846FCF713F92BA3002201210220FCF7C7
:105570000DF94FF4FA60FDF78BF911E0FBF7A4FF8A
:1055800026A3002201210846FCF700F927A30022E8
:1055900001210220FCF7FAF84FF4FA60FDF778F9E0
:1055A0000020BDE8FC810120FBE70000507265731C
:1055B000732046696E676572000000006F6E2053AD
:1055C000656E736F72202825752F32290000000048
:1055D000F40600205265636F7264696E672E2E2E8A
:1055E00000000000446F6E652E0000004661696C8B
:1055F00065642E00536176696E672E2E2E000000C2
:10560000FF0000000000000046696E67657270725E
:10561000696E740053617665642E00004661696CA2
:10562000656420746F2041646400000046696E6701
:1056300065727072696E742E000000007FB50546B9
:105640000C461E2C7DDAFBF73FFF42A3002201210E
:105650000846FCF79BF843A3002201210220FCF737
:1056600095F81BE002A92620FCF7F9FA262812D1AA
:1056700002A9FCF7F4FA4FF49670FDF709F902A9B4
:105680002620FCF7ECFA262805D103A8FCF715FA2A
:10569000262800D103E03220FDF7FAF8E2E700BF48
:1056A0000420FFF741FDFBF70FFF32A30022012189
:1056B0000846FCF76BF84FF4FA70FDF7E9F8FBF7D2
:1056C00003FF2FA3002201210846FCF75FF82FA358
:1056D000002201210220FCF759F82DA103C9CDE9D0
:1056E00000019DF80C008DF804009DF80D008DF868
:1056F00005009DF80E008DF806009DF80F008DF84E
:10570000070025B94FF4007000EBC40605E0012D39
:1057100003D14FF4A06000EBC4060822314668466E
:10572000FCF7BAFF4FF47A70FDF7B2F8FBF7CCFE46
:1057300019A3002201210846FCF728F84FF4FA606B
:1057400000E004E0FDF7A4F8002004B070BD0120E3
:10575000FBE70000507574204E657720436172644A
:10576000000000006F6E204E464320526561646564
:10577000722E0000466F756E6420436172642E00C5
:105780005265676973746572696E67002E2E2E000C
:10579000FF00000000000000436172642052656752
:1057A000697374657265642E000000007CB500208A
:1057B000009001900025002407E008222946684651
:1057C000FCF76AFF0835601C84B2C02CF5DB3C2175
:1057D0000020FAF769FF7CBD7CB505460C461E2CFF
:1057E00015DA00200090019025B94FF4007000EB0D
:1057F000C40605E0012D03D14FF4A06000EBC40600
:10580000082231466846FCF747FF00207CBD012096
:10581000FCE77CB505460C461E2C1DDA00200090E6
:10582000019045B94FF4807000EBC4060121204679
:10583000FAF73AFF09E0012D07D1A80200EBC406F0
:10584000012104F11E00FAF72FFF082231466846B5
:10585000FCF722FF00207CBD0120FCE77CB506465A
:105860000C461E2C11DA0020009001900EB9E500C4
:1058700004E0012E02D1E00000F54075082229461F
:105880006846FCF709FF00207CBD0120FCE7000012
:1058900000B585B001210420FCF7B6FA0121880388
:1058A000FCF7B2FA4FF40070ADF8100018208DF834
:1058B000130003208DF8120004A91748FBF739FAEA
:1058C0004FF48060ADF8100004208DF81300032021
:1058D0008DF8120004A91048FBF72BFA4FF4E130C1
:1058E00000900020ADF80C000C20ADF80A0000205C
:1058F000ADF80800ADF80600ADF8040069460748A9
:10590000FCF752FD01210548FCF7E6FC4021034865
:10591000FCF7EEFC05B000BD000801400038014076
:10592000F8B504460D464FF4C066002000908DF88F
:10593000015014B1FF208DF8000002223146684664
:10594000FCF7AAFE0020F8BD2DE9FC470546894674
:1059500016461F464FF00008B8F1000F30D14FF443
:1059600000744FF0000A27E0082221466846FCF741
:105970004FFE9DF80000FF2819D1002100200AE009
:105980002B5C021D1DF80220934202D04A1CD1B2AA
:1059900003E0421CD0B20428F2DB00BF31B94FF063
:1059A00001080020307087F800A008E000BF08342C
:1059B0000AF1010000F0FF0ABAF11E0FD4DB00BFAC
:1059C000B8F1000F30D14FF4A0644FF0000A27E087
:1059D000082221466846FCF71BFE9DF80000FF28C0
:1059E00019D1002100200AE02B5C021D1DF80220C5
:1059F000934202D04A1CD1B203E0421CD0B2042828
:105A0000F2DB00BF31B94FF001080120307087F898
:105A100000A008E000BF08340AF1010000F0FF0A0E
:105A2000BAF11E0FD4DB00BF89F800800020BDE86A
:105A3000FC872DE9FC470546894616461F464FF070
:105A40000008B8F1000F2ED10024A24627E008225A
:105A500021466846FCF7DCFD9DF80000FF2819D1BF
:105A6000002100200AE02B5CC21C1DF8022093429A
:105A700002D04A1CD1B203E0421CD0B20528F2DBAE
:105A800000BF31B94FF001080020307087F800A046
:105A900008E000BF08340AF1010000F0FF0ABAF183
:105AA0001E0FD4DB00BFB8F1000F30D14FF44074AB
:105AB0004FF0000A27E0082221466846FCF7A8FDBF
:105AC0009DF80000FF2819D1002100200AE02B5C7E
:105AD000C21C1DF80220934202D04A1CD1B203E03E
